:020000040800F2
:10000000000002202D480008D50B0008D70B00087F
:10001000D90B0008DB0B0008DD0B00080000000016
:100020000000000000000000000000007140000817
:10003000DF0B0008000000001141000875410008B6
:100040007D4800087D4800087D4800087D4800087C
:100050007D4800087D4800087D4800087D4800086C
:100060007D4800087D4800087D4800087D4800085C
:10007000E10B00087D480008F10B00087D480008EE
:100080007D4800087D4800087D4800087D4800083C
:100090007D4800087D4800087D4800087D4800082C
:1000A0007D480008010C00087D4800087D480008D4
:1000B0007D4800087D4800087D4800087D4800080C
:1000C0007D4800087D4800087D4800087D480008FC
:1000D0007D4800087D4800087D480008110C000894
:1000E0007D4800087D4800087D4800087D480008DC
:1000F0007D4800087D4800087D4800087D480008CC
:100100007D4800087D4800087D4800087D480008BB
:100110007D4800087D4800087D4800087D480008AB
:100120007D4800087D4800087D4800087D4800089B
:100130007D48000800000000000000007D48000825
:100140007D4800087D4800087D4800087D4800087B
:100150007D4800087D4800087D4800087D4800086B
:100160007D4800087D4800087D4800087D4800085B
:100170007D4800087D4800087D4800080000000018
:10018000000000007D4800080000000000000000A2
:100190007D48000800000000000000007D480008C5
:1001A0000000000000000000000000007D48000882
:1001B0007D4800087D4800087D4800087D4800080B
:0401C0007D4800086E
:1001D00010B5054C237833B9044B13B10448AFF381
:1001E00000800123237010BD1801002000000000D2
:1001F0000CED000808B5034B1BB103490348AFF3EE
:10020000008008BD000000001C0100200CED00086B
:1002100001F0FF01102A2BDB10F0070F08D010F8B7
:10022000013B013A8B422DD010F0070F42B3F6D1BB
:10023000F0B441EA012141EA014122F007047FF0D4
:1002400000070023F0E80256083C85EA010586EA2B
:10025000010685FA47F5A3FA87F586FA47F6A5FA67
:1002600087F68EB9EED1F0BC01F0FF0102F0070273
:1002700032B110F8013B013A83EA010313B1F8D11E
:100280000020704701387047002D06BF35460338FF
:10029000073815F0010F07D1013015F4807F02BF38
:1002A000013015F4C03F0130F0BC0138704700BF89
:1002B0007BB972B90029BEBF00204FF0004106E0B3
:1002C00008BF00281CBF6FF000414FF0FF3000F066
:1002D000BFB9ADF1080C6DE904CE002909DB002B94
:1002E0001ADB00F04DF8DDF804E0DDE9022304B08C
:1002F0007047404261EB4101002B1BDB00F040F8EE
:10030000DDF804E0DDE9022304B0404261EB410185
:10031000524263EB43037047524263EB430300F0E6
:100320002FF8DDF804E0DDE9022304B0404261EB80
:1003300041017047524263EB430300F021F8DDF8BE
:1003400004E0DDE9022304B0524263EB430370474B
:1003500053B94AB9002908BF00281CBF4FF0FF312C
:100360004FF0FF3000F074B9ADF1080C6DE904CE28
:1003700000F006F8DDF804E0DDE9022304B0704780
:100380002DE9F047089D04468E46002B4DD18A4248
:10039000944669D9B2FA82F252B101FA02F3C2F17B
:1003A000200120FA01F10CFA02FC41EA030E94400C
:1003B0004FEA1C48210CBEFBF8F61FFA8CF708FB2D
:1003C00016E341EA034306FB07F199420AD91CEB05
:1003D000030306F1FF3080F01F81994240F21C8137
:1003E000023E63445B1AA4B2B3FBF8F008FB10337F
:1003F00044EA034400FB07F7A7420AD91CEB0404B4
:1004000000F1FF3380F00A81A74240F20781644483
:10041000023840EA0640E41B00261DB1D440002308
:10042000C5E900433146BDE8F0878B4209D9002D6C
:1004300000F0EF800026C5E9000130463146BDE8F6
:10044000F087B3FA83F6002E4AD18B4202D3824260
:1004500000F2F980841A61EB030301209E46002D0F
:10046000E0D0C5E9004EDDE702B9FFDEB2FA82F264
:10047000002A40F09280A1EB0C014FEA1C471FFAC2
:100480008CFE0126200CB1FBF7F307FB131140EAA9
:1004900001410EFB03F0884208D91CEB010103F176
:1004A000FF3802D2884200F2CB804346091AA4B238
:1004B000B1FBF7F007FB101144EA01440EFB00FE0C
:1004C000A64508D91CEB040400F1FF3102D2A64571
:1004D00000F2BB800846A4EB0E0440EA03409CE710
:1004E000C6F12007B34022FA07FC4CEA030C20FABD
:1004F00007F401FA06F31C43F9404FEA1C4900FADD
:1005000006F3B1FBF9F8200C1FFA8CFE09FB181159
:1005100040EA014108FB0EF0884202FA06F20BD9CC
:100520001CEB010108F1FF3A80F08880884240F21C
:100530008580A8F102086144091AA4B2B1FBF9F060
:1005400009FB101144EA014100FB0EFE8E4508D95B
:100550001CEB010100F1FF346CD28E456AD90238E0
:10056000614440EA0840A0FB0294A1EB0E01A142C5
:10057000C846A64656D353D05DB1B3EB080261EB33
:100580000E0101FA07F722FA06F3F1401F43C5E90D
:10059000007100263146BDE8F087C2F12003D84043
:1005A0000CFA02FC21FA03F3914001434FEA1C4785
:1005B0001FFA8CFEB3FBF7F007FB10360B0C43EA77
:1005C000064300FB0EF69E4204FA02F408D91CEB27
:1005D000030300F1FF382FD29E422DD90238634425
:1005E0009B1B89B2B3FBF7F607FB163341EA0341C5
:1005F00006FB0EF38B4208D91CEB010106F1FF3814
:1006000016D28B4214D9023E6144C91A46EA00460A
:1006100038E72E46284605E70646E3E61846F8E69C
:100620004B45A9D2B9EB020864EB0C0E0138A3E7E5
:100630004646EAE7204694E74046D1E7D0467BE7C6
:10064000023B614432E7304609E76444023842E73E
:10065000704700BF10F8012B11F8013B012A28BF99
:100660009A42F7D0D01A7047034613F8012B002A9C
:10067000FBD1181A0138704730B595B034220021EB
:1006800007A804F035F90024029403940494059417
:10069000069400941D4B1A6C42F080521A641B6C35
:1006A00003F080530093009B0194194B1A6842F4A5
:1006B00040421A601B6803F440430193019B0123ED
:1006C00007934FF48033089302250D954FF4800370
:1006D0000E9308230F934FF4B47310931195129552
:1006E000139507A800F0B0FC01F0E2F90F23029384
:1006F000039504944FF4A05305934FF4805306934D
:10070000052102A800F0ECFA15B030BD0038024017
:100710000070004008B501F061FAFFF7ADFF00F08E
:1007200019F800F0B5F800F059F903F051FA00F0AB
:1007300045F903F06BFAFEE708B50268034B9A42ED
:1007400000D008BD01F064FAFBE700BF00000140E3
:1007500070470000F0B58DB0002407940894099408
:100760000A940B940194454B1A6B42F004021A63ED
:100770001A6B02F004020192019A02941A6B42F081
:1007800080021A631A6B02F080020292029A0394AA
:100790001A6B42F002021A631A6B02F00202039211
:1007A000039A04941A6B42F008021A631A6B02F05F
:1007B00008020492049A05941A6B42F040021A63EC
:1007C0001A6B02F040020592059A06941A6B42F0E9
:1007D00001021A631B6B03F001030693069B284F6B
:1007E000224644F28101384600F0F6FE254D2246AD
:1007F0004021284600F0F0FE4FF400530793224BAF
:100800000893099407A9214800F004FE44F28103EB
:1008100007930126089609940A9407A9384600F020
:10082000F9FD40230793089609940A9407A92846DE
:1008300000F0F0FD802307930894099407A9284647
:1008400000F0E8FD4FF4E85307930223089309945E
:1008500003230A930A230B93A5F5C05507A928463D
:1008600000F0D8FD4FF4007307930894099407A98A
:10087000284600F0CFFD0DB0F0BD00BF00380240AB
:10088000000402400018024000001110000802405D
:1008900010B582B0002401940D4B1A6B42F4001283
:1008A0001A631B6B03F400130193019B224605217D
:1008B0000C2001F04DF90C2001F082F922460521AF
:1008C0000E2001F045F90E2001F07AF902B010BDBA
:1008D0000038024000B5A5B02A4B01932A4B009383
:1008E0002A4B2B4A2B49012005F01AFA1FA805F0C4
:1008F00097F9294B1F93294B2093294B2193294B7F
:1009000022931FA805F09AF928B302A805F0B4F9BC
:100910000DF12C0E0DF1080CBCE80F00AEE80F0035
:10092000DCF80030CEF800300BAB0022114610A8E6
:1009300005F0B4F810AB1C4A1C4909A805F0F8F8FA
:1009400005F074FE02461A4B09A91EA805F02CF901
:1009500000231D930EE09F21164803F0D1FFD4E73A
:10096000C021154803F0CCFF1D9B01331D930A20C5
:1009700003F0DCF900221DA91EA805F06BF8002881
:10098000EED1F1E7B547000877470008694700084E
:100990005147000834310020E545000809460008A9
:1009A00029460008694600084CF300085CED000881
:1009B00068ED000834ED00087CED000808B5044A35
:1009C0000021044803F046F9034B186008BD00BF3E
:1009D000A4ED0008D50800087030002008B50A48CA
:1009E0000A4B03604FF4E133436000238360C3602C
:1009F00003610C2242618361C36101F0A3FB00B972
:100A000008BDFFF7A5FEFBE7343100200048004099
:100A100030B589B00023039304930593069307939D
:100A20000268364B9A4201D009B030BD0446002519
:100A3000019503F5F8331A6C42F480221A641A6C9B
:100A400002F480220192019A02951A6B42F0080288
:100A50001A631B6B03F008030293029B4FF440736D
:100A6000039302230493032306930723079303A905
:100A7000234800F0CFFC2348234B03604FF0006372
:100A800043608560C5604FF48063036145618561A3
:100A90004FF48073C3614FF440330362456200F04A
:100AA00021FE28BB174B63639C631848184B0360F7
:100AB0004FF000634360402383600023C3604FF422
:100AC0008062026143618361C3614FF4403202621C
:100AD000436200F007FE70B90C4B23639C63002255
:100AE0000521272001F034F8272001F069F89BE761
:100AF000FFF72EFED6E7FFF72BFEEDE7004800409C
:100B0000000C02407430002028600240D4300020E5
:100B1000586002400120704708B503F0B1FE16236B
:100B200003604FF0FF3008BD08B54FF0FF31FFF70D
:100B3000F3FFFEE770B50C461646002506E0AFF35E
:100B40000080214601F8010B01350C46B542F6DB69
:100B5000304670BD70B50C461646002504E014F80A
:100B6000010BAFF300800135B542F8DB304670BDB4
:100B700008B503460D4A12685AB10C4A106803447E
:100B80000B4A11780B4A521A934206D8074A13604F
:100B900008BD064A08491160EFE700BE03F070FE89
:100BA0000C2303604FF0FF30F2E700BF78310020E4
:100BB0000004000000000220480A01204FF0FF302E
:100BC00070474FF400534B6000207047012070477E
:100BD000002070477047FEE7FEE7FEE7FEE770473C
:100BE00008B5024800F076FE08BD00BF7430002052
:100BF00008B5024800F06EFE08BD00BFD4300020EA
:100C000008B5024801F02CF808BD00BF7C31002077
:100C100008B5024801F060FC08BD00BF3431002077
:100C200000B583B0002200920D4B596C41F4804115
:100C30005964596C01F48041009100990192196C3A
:100C400041F0805119641B6C03F080530193019BA8
:100C50000F216FF0010000F07BFF03B05DF804FB93
:100C60000038024010B588B001460022192000F07B
:100C70006FFF192000F0A4FF00240194144B5A6C5C
:100C800042F001025A645B6C03F001030193019B83
:100C900002A903A800F0FAF800F0E8F843000D48B4
:100CA000A0FB03239B0C013B0B480C4A026040F263
:100CB000E732C26043600461846001F0F3F810B170
:100CC000012008B010BD044800F0B5FFF9E700BFEF
:100CD0000038024083DE1B437C31002000000140CD
:100CE000002800F09B8070B50D4604464F4B1B68F2
:100CF00003F00F038B4208D2CBB24C4A1370136837
:100D000003F00F038B4240F08B80236813F0020F37
:100D100017D013F0040F04D0454A936843F4E0530E
:100D20009360236813F0080F04D0414A936843F49A
:100D3000604393603E4A936823F0F003A1680B433D
:100D40009360236813F0010F32D06368012B21D028
:100D50009A1E012A25D9364A126812F0020F61D074
:100D600033498A6822F0030213438B6000F05CFF72
:100D700006462F4B9B6803F00C036268B3EB820FAF
:100D800016D000F051FF801B41F288339842F0D911
:100D9000032042E0264A126812F4003FE0D101200D
:100DA0003BE0234A126812F0007FD9D1012034E0E1
:100DB0001E4B1B6803F00F03AB4207D9EAB21B4B73
:100DC0001A701B6803F00F03AB422DD1236813F098
:100DD000040F06D0164A936823F4E053E1680B43EE
:100DE0009360236813F0080F07D0114A936823F427
:100DF0006043216943EAC103936000F065F80C4B3E
:100E00009B68C3F303130B4AD35CD8400A4B1860AA
:100E10000A4B1868FFF726FF002070BD01207047BD
:100E20000120FAE70120F8E70120F6E7003C024044
:100E300000380240D0ED00080C000020080000201F
:100E4000014B1868704700BF0C00002008B5FFF781
:100E5000F7FF044B9B68C3F38223034AD35CD8405B
:100E600008BD00BF00380240E0ED000808B5FFF7FC
:100E7000E7FF044B9B68C3F34233034AD35CD8407B
:100E800008BD00BF00380240E0ED00080F230360FA
:100E90000B4B9A6802F0030242609A6802F0F0027B
:100EA00082609A6802F4E052C2609B68DB0803F437
:100EB000E0530361034B1B6803F00F030B607047A3
:100EC00000380240003C024008B55C4B9B6803F0D0
:100ED0000C03082B07D00C2B5BD0042B01D05848F7
:100EE00008BD5848FCE7554B5A6802F03F025B6862
:100EF00013F4800F2AD0514B5968C1F3881C4FEA74
:100F00004C11B1EB0C006EEB0E0E4FEA8E1343EA60
:100F100090638101091A63EB0E03DB0043EA51730E
:100F2000C90011EB0C0C43F10003590200234FEAF6
:100F30004C2041EADC51FFF70BFA404B5B68C3F3EE
:100F4000014301335B00B0FBF3F0C9E73B4B596849
:100F5000C1F3881C4FEA4C11B1EB0C006EEB0E0E86
:100F60004FEA8E1343EA90638101091A63EB0E0383
:100F7000DB0043EA5173C90011EB0C0C43F1000391
:100F8000990200234FEA8C2041EA9C51FFF7E0F9D7
:100F9000D3E72A4B5A6802F03F025B6813F4800FD4
:100FA00028D0264B5968C1F3881C4FEA4C11B1EB8D
:100FB0000C006EEB0E0E4FEA8E1343EA9063810134
:100FC000091A63EB0E03DB0043EA5173C90011EB0E
:100FD0000C0C43F10003590200234FEA4C2041EA74
:100FE000DC51FFF7B5F9154B5B68C3F30273B0FB37
:100FF000F3F075E7114B5968C1F3881C4FEA4C11A7
:10100000B1EB0C006EEB0E0E4FEA8E1343EA9063C9
:101010008101091A63EB0E03DB0043EA5173C90037
:1010200011EB0C0C43F10003990200234FEA8C20D2
:1010300041EA9C51FFF78CF9D5E700BF0038024028
:101040000024F40000127A0070B582B004460368F0
:1010500013F0010F41D09A4B9B6803F00C03042B53
:1010600032D0974B9B6803F00C03082B27D0944B8E
:101070009B6803F00C030C2B59D06368B3F5803FD9
:101080005BD0B3F5A02F5ED08D4B1A6822F480326E
:101090001A601A6822F480221A606368002B5CD000
:1010A00000F0C2FD0546864B1B6813F4003F14D1C7
:1010B00000F0BAFD401B6428F5D903209FE1804B66
:1010C0005B6813F4800FD2D07D4B1B6813F4003F94
:1010D00003D06368002B00F08D81236813F0020FAA
:1010E00060D0774B9B6813F00C0F4AD0744B9B6811
:1010F00003F00C03082B3FD0714B9B6803F00C03EB
:101100000C2B69D0E368002B75D06E4B01221A605E
:1011100000F08AFD05466A4B1B6813F0020F61D18F
:1011200000F082FD401B0228F5D9032067E1644BE3
:101130005B6813F4800FA0D0C6E7614A136843F4DC
:1011400080331360A9E75E4B1A6842F480221A606C
:101150001A6842F480321A609FE700F065FD054688
:10116000574B1B6813F4003FB7D000F05DFD401BE8
:101170006428F5D9032042E1514B5B6813F4800FDA
:10118000BAD14F4B1B6813F0020F03D0E368012B59
:1011900040F032814A4A136823F0F803216943EA98
:1011A000C1031360236813F0080F49D06369002B53
:1011B00033D0444B0122C3F8802E00F035FD0546A4
:1011C0003F4B5B6F13F0020F3AD100F02DFD401B37
:1011D0000228F5D9032012E1394B5B6813F4800F24
:1011E00090D1CEE7364A136823F0F803216943EA29
:1011F000C1031360D6E7334B00221A6000F014FDE0
:1012000005462F4B1B6813F0020FCBD000F00CFDEE
:10121000401B0228F5D90320F1E02A4B0022C3F835
:10122000802E00F001FD0546254B5B6F13F0020F89
:1012300006D000F0F9FC401B0228F5D90320DEE0BF
:10124000236813F0040F77D01D4B1B6C13F0805FE5
:1012500033D1002301931A4B1A6C42F080521A6466
:101260001B6C03F080530193019B0125164B1B68F7
:1012700013F4807F2AD0A368012B3BD0052B3FD0ED
:101280000F4B1A6F22F001021A671A6F22F0040244
:101290001A67A368002B3DD000F0C6FC0646084B39
:1012A0001B6F13F0020F46D100F0BEFC801B41F211
:1012B00088339842F3D90320A1E00025D6E700BF88
:1012C0000038024000004742007000404E4A136858
:1012D00043F48073136000F0A7FC06464A4B1B687A
:1012E00013F4807FC7D100F09FFC801B0228F5D942
:1012F000032084E0454A136F43F001031367C8E7F6
:10130000424B1A6F42F004021A671A6F42F0010250
:101310001A67BEE700F088FC06463C4B1B6F13F0D3
:10132000020F08D000F080FC801B41F28833984205
:10133000F3D9032063E0E5B9A369002B5ED0334AFB
:10134000926802F00C02082A5BD0022B17D0304BB7
:1013500000221A6600F068FC04462C4B1B6813F050
:10136000007F45D000F060FC001B0228F5D9032067
:1013700045E0264A136C23F080531364DCE7244BCA
:1013800000221A6600F050FC0546204B1B6813F043
:10139000007F06D000F048FC401B0228F5D903204E
:1013A0002DE0E369226A1343626A43EA8213A26A68
:1013B0005208013A43EA0243E26A43EA0263226BBB
:1013C00043EA0273114A5360114B01221A6600F07E
:1013D0002BFC04460D4B1B6813F0007F06D100F078
:1013E00023FC001B0228F5D9032008E0002006E0BA
:1013F000002004E0012002E0012000E0002002B013
:1014000070BD0120FBE700BF0070004000380240C3
:101410000000474200230F2B00F2D480F0B583B0C8
:101420003AE0062200E00022AA4032430234664D30
:1014300045F82420654A14686FEA0C0224EA0C057A
:101440004E6816F4803F01D04CEA04055F4C2560DD
:10145000646802EA04054E6816F4003F01D04CEAC5
:1014600004055A4C6560A46802EA04054E6816F447
:10147000801F01D04CEA0405544CA560E46822406A
:101480004D6815F4001F01D04CEA04024F4CE26095
:1014900001330F2B00F2948001229A400C6804EA79
:1014A000020C32EA0404F3D14C68651E012D03D905
:1014B000112C01D0122C12D185685E000324B44097
:1014C00025EA0405CC68B4402C438460456825EACD
:1014D00002054C68C4F300129A402A434260C56872
:1014E0004FEA430E032404FA0EF4E24325EA04050E
:1014F0008C6804FA0EF42C43C4604C68022C01D0B2
:10150000122C0FD1DD08083550F8257003F00704C0
:10151000A6000F24B44027EA04070C69B4403C43FA
:1015200040F82540046814404A6802F0030202FAB9
:101530000EF2224302604A6812F0805FA8D00022B7
:101540000192234A546C44F480445464526C02F473
:1015500080420192019A9C08A51C1B4A52F8256002
:1015600003F0030295000F22AA4026EA0206194A58
:1015700090423FF458AF02F58062904216D002F5D7
:101580008062904214D002F58062904212D002F53F
:101590008062904210D002F5806290420ED002F537
:1015A000806290423FF43DAF07223DE701223BE7D6
:1015B000022239E7032237E7042235E7052233E721
:1015C00003B0F0BD704700BF00380140003C01404F
:1015D00000380240000002400AB1816170470904EE
:1015E0008161704730B405682C6824F480242C6035
:1015F000046863608368402B05D0036899600368C2
:10160000DA6030BC704703689A600368D960F8E715
:1016100010B40368D9B210390C4AA2FB0142120976
:101620000B4CA25CC2655F2909D923F47F7323F0B8
:10163000030304338365806D5DF8044B704723F426
:101640007F7323F003038365F5E700BFABAAAAAA63
:10165000C8ED0008836A826992B9012B0AD0022B77
:1016600002D00BB100207047C36A13F0807F28D1ED
:1016700000207047C36AB3F1C07F24D000207047B8
:10168000B2F5005F09D0022B25D9032B25D1C36AFF
:1016900013F0807F23D100207047032B03D8DFE8AD
:1016A00003F01404140A00207047C36A13F0807F0B
:1016B0000DD100207047C36AB3F1C07F09D000206C
:1016C00070470120704701207047012070470120BA
:1016D00070470120704701207047002070470120AB
:1016E0007047000070B5044600F09EFA002C5BD0F5
:1016F0000546002384F83430022384F8353022680C
:10170000136823F00103136023681A6812F0010FB5
:101710000AD000F089FA431B052BF5D92023636515
:10172000032084F8350070BD1A68204810406168B5
:10173000A2680A43E1680A4321690A4361690A43CE
:10174000A1690A43E1690A43216A0A430243616AC3
:1017500004291ED01A602668756925F00705636A9A
:101760001D43042B07D1A36A1D43E36A1BB1204626
:10177000FFF770FF90B975612046FFF749FFE26DF2
:101780003F239340836000206065012384F8353057
:10179000C9E7E16A206B01430A43DBE74023636545
:1017A000012084F83500BEE70120BCE73F8010F03F
:1017B00038B50446856D90F8340001282BD00120FF
:1017C00084F8340094F83500C0B2012804D0002316
:1017D00084F83430022038BD022084F8350000201F
:1017E00060652046FFF7FEFEE26D3F239340AB604D
:1017F0002268136843F016031360236C23B1226838
:10180000136843F0080313602268136843F0010370
:1018100013600020DFE70220DDE770B50446866D27
:1018200000F002FA94F83530DBB2022B06D08023A8
:101830006365002384F83430012070BD05462268BA
:10184000136823F0160313602268536923F08003A2
:101850005361236CE3B12268136823F0080313601B
:101860002268136823F00103136023681B6813F0D8
:10187000010F11D000F0D8F9431B052BF5D9202317
:101880006365002384F83430032084F83500D4E7FE
:10189000A36C002BDFD1E3E7E26D3F239340B360FD
:1018A000002084F83400012384F83530C5E790F82F
:1018B0003530DBB2022B03D0802343650120704713
:1018C000052380F835300268136823F001031360A4
:1018D00000207047F0B583B0044600230193724B9B
:1018E0001D68724BA3FB0535AD0A876D3E68C26D5E
:1018F00008239340334210D003681A6812F0040F93
:101900000BD01A6822F004021A60C26D08239340BB
:10191000BB60436D43F001034365E26D01239340D7
:10192000334209D02268526912F0800F04D0BB60A4
:10193000636D43F002036365E26D04239340334219
:1019400009D02268126812F0020F04D0BB60636DE8
:1019500043F004036365E26D10239340334224D0C7
:101960002268126812F0080F1FD0BB6023681A6843
:1019700012F4802F0DD01B6813F4002F04D1236CB8
:101980009BB12046984710E0A36C73B1204698475E
:101990000BE01A6812F4807F03D11A6822F0080263
:1019A0001A60236C0BB120469847E26D20239340C8
:1019B000334255D02268126812F0100F50D0BB602D
:1019C00094F83530DBB2052B0ED023681A6812F478
:1019D000802F33D01B6813F4002F2AD1636C002BA7
:1019E0003ED0204698473BE02268136823F0160358
:1019F00013602268536923F080035361236CA3B101
:101A00002268136823F008031360E26D3F239340BC
:101A1000BB60002384F83430012384F83530236D13
:101A2000002B3FD0204698473CE0A36C002BE7D129
:101A3000EBE7E36BA3B12046984711E01A6812F474
:101A4000807F09D11A6822F010021A60002384F8FE
:101A50003430012384F83530E36B0BB120469847CE
:101A6000636DFBB1636D13F0010F17D0052384F88C
:101A700035302268136823F001031360019B0133A2
:101A80000193AB4204D823681B6813F0010FF5D112
:101A9000002384F83430012384F83530E36C0BB133
:101AA0002046984703B0F0BD0C000020B5814E1BC6
:101AB00010B582B000230193194B1A6C42F080528A
:101AC0001A641B6C03F080530193019B154B012298
:101AD0001A6400F0A9F80446134B5B6813F4803FC6
:101AE00008D100F0A1F8001BB0F57A7FF4D90320EB
:101AF00002B010BD0B4B01225A6400F095F8044669
:101B0000094B5B6813F4003F07D100F08DF8001B10
:101B1000B0F57A7FF4D90320EAE70020E8E700BFB8
:101B20000038024000000E4200700040074AD368AF
:101B300023F4E0631B041B0C000200F4E060034389
:101B400043F0BF6343F40033D360704700ED00E01F
:101B500000B5194BDB68C3F30223C3F1070CBCF1DA
:101B6000040F28BF4FF0040C03F1040EBEF1060F62
:101B700018D9033B4FF0FF3E0EFA0CFC21EA0C0192
:101B800099400EFA03F322EA0303194300280BDB02
:101B90000901C9B200F1604000F5614080F800130E
:101BA0005DF804FB0023E5E700F00F000901C9B26E
:101BB000024B1954F4E700BF00ED00E014ED00E023
:101BC000002807DB00F01F02400901239340024A6E
:101BD00042F82030704700BF00E100E008B50B4B31
:101BE0001A6842F400721A601A6842F480621A603D
:101BF0001A6842F480721A600320FFF797FF0020F2
:101C0000FFF730F8FFF70CF8002008BD003C024059
:101C1000034A1168034B1B780B441360704700BFE5
:101C2000BC31002004000020014B1868704700BF41
:101C3000BC31002070470268D36843F00103D360D1
:101C40000268936803F00703062B03D0136843F080
:101C5000010313600020704770477047704770475A
:101C600010B5044603681A6912F0020F11D0DA6841
:101C700012F0020F0DD06FF002021A6101230377F8
:101C800003689B6913F0030F70D0FFF7E6FF002392
:101C9000237723681A6912F0040F12D0DA6812F061
:101CA000040F0ED06FF004021A6102232377236819
:101CB0009B6913F4407F5FD02046FFF7CEFF0023DF
:101CC000237723681A6912F0080F12D0DA6812F02D
:101CD000080F0ED06FF008021A61042323772368DF
:101CE000DB6913F0030F4ED02046FFF7B6FF002349
:101CF000237723681A6912F0100F12D0DA6812F0F5
:101D0000100F0ED06FF010021A610823237723689A
:101D1000DB6913F4407F3DD02046FFF79EFF002390
:101D2000237723681A6912F0010F03D0DA6812F0E2
:101D3000010F36D123681A6912F0800F03D0DA68D8
:101D400012F0800F34D123681A6912F0400F03D0CB
:101D5000DA6812F0400F32D123681A6912F0200FAE
:101D600003D0DA6812F0200F30D110BDFFF774FFF6
:101D70002046FFF773FF8AE72046FFF76DFF2046F6
:101D8000FFF76CFF9BE72046FFF766FF2046FFF753
:101D900065FFACE72046FFF75FFF2046FFF75EFFD9
:101DA000BDE76FF001021A612046FEF7C5FCC1E7EE
:101DB0006FF080021A61204600F08FF8C3E76FF0E1
:101DC00040021A612046FFF74AFFC5E76FF0200284
:101DD0001A61204600F080F8C7E700000368304A27
:101DE000904212D0B0F1804F0FD0A2F57C429042C9
:101DF0000BD002F58062904207D002F580629042DB
:101E000003D002F57842904203D123F070034A6870
:101E10001343234A90422AD0B0F1804F27D0A2F535
:101E20007C42904223D002F5806290421FD002F59E
:101E3000806290421BD002F57842904217D002F5A2
:101E40007052904213D002F5806290420FD002F59A
:101E5000806290420BD0A2F59832904207D002F5F2
:101E60008062904203D002F58062904203D123F455
:101E70004073CA68134323F080034A691343036025
:101E80008B68C3620B688362054B984203D003F5ED
:101E90008063984201D10B6903630123436170475A
:101EA00000000140B0B110B5044690F83D3063B178
:101EB000022384F83D30214651F8040BFFF78EFFD2
:101EC000012384F83D30002010BD80F83C30FFF73E
:101ED000B1FEEDE701207047704770470268D36894
:101EE00023F0C003D360202380F8393070470268A4
:101EF000D36823F49073D3600268536923F001031D
:101F00005361202380F83A30704790F83930DBB2C3
:101F1000212B01D0022070478368B3F5805F17D072
:101F2000036A5A1C02621A7803685A60C38C9BB217
:101F3000013B9BB2C3844BB90268D36823F0800392
:101F4000D3600268D36843F04003D3600020704739
:101F5000036A1B880268C3F30803536003691BB953
:101F6000036A02330362E1E7036A01330362DDE7D8
:101F700038B504460268136923F44053C1680B4323
:101F8000136183680269134342691343C2691A43A8
:101F90000168CB6823F4164323F00C031343CB6092
:101FA0000268536923F4407381690B435361C36929
:101FB000B3F5004F35D00368604A934200F091803A
:101FC00002F58062934200F08C80FEF73FFF002113
:101FD000031849411B1841F10001C90041EA53713E
:101FE000DB00181863684FEA83024FEA937341F1EC
:101FF0000001FEF7ADF9524DA5FB003251096423F3
:1020000003FB11031B013233A5FB03235B0903F020
:10201000F00202EB011203F00F03216813448B60FE
:102020008AE00368454A93422FD002F580629342CA
:102030002BD0FEF70BFF0023021843EB030112180D
:1020400041F10001C90041EA5271D200101841F17A
:102050000001626892185B41FEF77AF9384DA5FBE2
:1020600000325109642303FB1103DB003233A5FB6B
:1020700003235B095A0002F4F87202EB011203F029
:102080000703216813448B6056E0FEF7EFFE002340
:10209000021843EB0301121841F10001C90041EAA3
:1020A0005271D200101841F10001626892185B4130
:1020B000FEF74EF9224DA5FB00325109642303FBC4
:1020C0001103DB003233A5FB03235B095A0002F442
:1020D000F87202EB011203F00703216813448B60CE
:1020E0002AE0FEF7C3FE0021031849411B1841F105
:1020F0000001C90041EA5371DB00181863684FEA18
:1021000083024FEA937341F10001FEF721F90C4D70
:10211000A5FB00325109642303FB11031B01323379
:10212000A5FB03235B0903F0F00202EB011203F0AD
:102130000F03216813448B6038BD00BF00100140BD
:102140001F85EB5158B310B5044690F839300BB3E6
:10215000242384F839302268D36823F40053D360F1
:102160002046FFF705FF2268136923F490431361AB
:102170002268536923F02A0353612268D36843F429
:102180000053D3600020E063202384F8393084F8C2
:102190003A3010BD80F83830FEF73AFCD8E701201D
:1021A0007047000038B590F83930DBB2202B31D1C0
:1021B0000446002930D0002A30D090F83830012B66
:1021C0002ED0012380F8383001628284C284002539
:1021D000C563212380F83930036B1248D863236B21
:1021E00011481864236B1148D864236B1D6520685F
:1021F0001346021D206BFFF7DBFA23686FF04002E5
:102200001A6084F838502268536943F080035361A0
:10221000284600E0022038BD0120FCE70120FAE753
:102220000220F8E73F2300088B23000881240008E0
:1022300030B583B0044690F83A00C0B220283CD1B3
:1022400000293DD0002A3DD094F83830012B3BD0F6
:10225000012384F83830A162A2850025E56322239A
:1022600084F83A30636B1948D863636B1848186474
:10227000636B1848D864636B1D65206813460A4673
:10228000011D606BFFF794FA019523681A680192AB
:102290005A680192019A84F83850DA6842F48072E0
:1022A000DA602268536943F001035361226853697D
:1022B00043F040035361284600E0022003B030BDE4
:1022C0000120FBE70120F9E70220F7E79723000848
:1022D000752400088124000810B5044601684A6985
:1022E00090F83930DBB2212B0AD021684A6902F01C
:1022F000400294F83A30DBB2222B11D0002010BDFE
:1023000002F08002002AF0D04B6923F080034B6179
:10231000006B08B1FFF781FA2046FFF7DFFDE4E725
:10232000002AEBD04B6923F040034B61606B08B18E
:10233000FFF773FA2046FFF7DAFDDFE7704708B5CD
:102340000346806B1B681B6813F4807F0CD100234D
:10235000C3840268536923F0800353610268D36821
:1023600043F04003D36008BDFFF7E8FFFBE708B583
:102370000168CA6822F04002CA60202280F8392031
:10238000FFF7DCFF002008BD704708B5806BFFF742
:10239000FBFF08BD704708B50346806B1B681B68D0
:1023A00013F4807F13D10023C3850268D36823F41C
:1023B0008073D3600268536923F00103536102689C
:1023C000536923F040035361202380F83A30FFF72C
:1023D000E1FF08BD08B590F83A30DBB2222B46D1B8
:1023E0008368B3F5805F0FD003690BBB03685A683D
:1023F000836A591C81621A70C38D9BB2013B9BB2E8
:10240000C385F3B1002008BD826A036943B903683C
:102410005B68C3F308031380836A02338362EBE7CC
:1024200003685B68DBB21380836A01338362E3E78E
:1024300003685B68826A511C816203F07F0313703A
:10244000DAE70268D36823F02003D3600268D36818
:1024500023F48073D3600268536923F0010353614E
:10246000202380F83A30FFF795FF0020CBE70220C9
:10247000C9E7704708B5806BFFF7FBFF08BD7047E1
:1024800010B5846B23685A6994F83930DBB2212B7C
:1024900010D023685A6902F0400294F83A30DBB257
:1024A000222B11D0E36B43F01003E3632046FFF7C8
:1024B000E6FF10BD02F08002002AEAD00023E38488
:1024C0002046FFF70BFDE4E7002AEBD00023E3856D
:1024D0002046FFF70CFDE5E710B5044602681368D7
:1024E000D168526913F00F0005D113F0200F02D00C
:1024F00011F0200F13D128B112F0010213D111F401
:10250000907F10D113F0800F02D011F0800F6CD1AA
:1025100013F0400F02D011F0400F6AD110BD2046D9
:10252000FFF758FFFAE713F0010F06D011F4807F90
:1025300003D0E06B40F00100E06313F0040F04D01F
:102540001AB1E06B40F00200E06313F0020F04D018
:102550001AB1E06B40F00400E06313F0080F07D0FD
:1025600011F0200F00D11AB1E26B42F00802E263D1
:10257000E26B002AD2D013F0200F02D011F0200F0E
:1025800021D123685B6903F04003E26B12F0080F6E
:1025900000D123B32046FFF7AAFC23685A6912F042
:1025A000400F18D05A6922F040025A61636B73B130
:1025B000124A1A65606BFFF77AF90028AED0606B9B
:1025C000036D9847AAE72046FFF704FFD9E72046A6
:1025D000FFF755FFA2E72046FFF751FF9EE7204691
:1025E000FFF74DFF0023E36398E72046FFF78DFCDC
:1025F00094E72046FFF7BBFE90E700BF01260008E6
:1026000008B5806B0023C385C384FFF738FF08BD7E
:10261000054BD3F8882042F47002C3F888204FF0AD
:1026200000629A60704700BF00ED00E000F108030F
:1026300043604FF0FF328260C36003610023036098
:10264000704700230361704743684B609A688A6053
:10265000516099600861036801330360704730B4CA
:102660000D68B5F1FF3F11D000F108031C465B680F
:102670001A68AA42FAD963684B6099608C606160FD
:10268000086103680133036030BC70470469F2E7F6
:102690000369416882688A60416851605A68824271
:1026A00006D0002202611A68013A1A601868704761
:1026B00082685A60F5E710B5044601F0EBFCA26BA6
:1026C000E36B9A4204D0002401F006FD204610BDC1
:1026D0000124F9E710B5044601F0DCFCA36B23B933
:1026E000012401F0F9FC204610BD0024F9E770B583
:1026F00004461546866B026C5AB903681BB100206C
:102700000136A66370BD806800F0F0FF0023A3606F
:10271000F6E76DB9406802F0DDF8226C6368134497
:102720006360A268934219D3236863602846E7E791
:10273000C06802F0CFF8226C5142E3689B1AE36054
:102740002268934202D2A3680B44E360022D01D0B9
:102750000020D5E726B1013E0020D1E72846CFE78B
:102760000020CDE70346026C6AB110B50846D9686F
:102770001144D9609C68A14201D31968D960D96815
:1027800002F0A8F810BD704738B5054601F082FC8C
:1027900095F8454064B201E0013C64B2002C0ADDCA
:1027A0006B6A43B105F1240000F0DAFE0028F3D093
:1027B00000F086FFF0E7FF2385F8453001F08CFC40
:1027C00001F068FC95F8444064B201E0013C64B259
:1027D000002C0ADD2B6943B105F1100000F0C0FEAA
:1027E0000028F3D000F06CFFF0E7FF2385F84430B9
:1027F00001F072FC38BD38B5E0B10D46044601F079
:1028000049FC2368E26B216C01FB0230A0600020D0
:10281000A0636360013A02FB0133E360FF2384F8A5
:10282000443084F84530FDB9236963B901F054FCA4
:10283000012038BD4FF0500383F31188BFF36F8F31
:10284000BFF34F8FFEE704F1100000F089FE00286F
:10285000ECD04FF0E0234FF08052C3F8042DBFF3CB
:102860004F8FBFF36F8FE1E704F11000FFF7DEFE3B
:1028700004F12400FFF7DAFED8E738B51D46049CC2
:102880000B4649B92460E063236401212046FFF729
:10289000B2FF84F84C5038BD2260F4E740B94FF0E5
:1028A000500383F31188BFF36F8FBFF34F8FFEE7A1
:1028B00010B584B01C46844653B192B189B94FF02B
:1028C000500383F31188BFF36F8FBFF34F8FFEE781
:1028D0004FF0500383F31188BFF36F8FBFF34F8F17
:1028E000FEE76AB150230393039B502B13D04FF0A4
:1028F000500383F31188BFF36F8FBFF34F8FFEE751
:102900000029EFD04FF0500383F31188BFF36F8F8E
:10291000BFF34F8FFEE7039B012384F846300094FA
:102920009DF818306046FFF7A8FF204604B010BDA0
:10293000F0B585B0019288B10F461D460446B1B18D
:10294000022D20D1E36B012B1DD04FF0500383F3F8
:102950001188BFF36F8FBFF34F8FFEE74FF0500327
:1029600083F31188BFF36F8FBFF34F8FFEE7036CC4
:10297000002BE5D04FF0500383F31188BFF36F8F26
:10298000BFF34F8FFEE700F0A1FE064658B9019B4A
:10299000002B48D04FF0500383F31188BFF36F8FA3
:1029A000BFF34F8FFEE700263DE02A46394620461A
:1029B000FFF79DFE636A7BB948B14FF0E0234FF00B
:1029C0008052C3F8042DBFF34F8FBFF36F8F01F018
:1029D00083FB012005B0F0BD04F1240000F0C0FD30
:1029E0000028F4D04FF0E0234FF08052C3F8042DBC
:1029F000BFF34F8FBFF36F8FE9E701F06DFB00204E
:102A0000E8E702A800F00EFE012619E0002384F892
:102A1000443021E0002384F8453023E02046FFF7CE
:102A2000B3FE00F07DFC01F035FBA26BE36B9A4234
:102A3000BBD3022DB9D0019B002BDED0002EE0D0FD
:102A400001F04AFB00F0D2FB01F024FB94F8442093
:102A500052B2B2F1FF3FD9D094F8452052B2B2F150
:102A6000FF3FD7D001F038FB01A902A800F0E6FD36
:102A7000D8B92046FFF71FFE0028CFD0019904F1F6
:102A8000100000F039FD2046FFF77EFE00F048FC04
:102A90000028C8D14FF0E0234FF08052C3F8042D36
:102AA000BFF34F8FBFF36F8FBDE72046FFF76CFE7C
:102AB00000F036FC00208DE72DE9F84390B10F4679
:102AC00016461C460546B1B1022C20D1EB6B012BFA
:102AD0001DD04FF0500383F31188BFF36F8FBFF306
:102AE0004F8FFEE74FF0500383F31188BFF36F8FD2
:102AF000BFF34F8FFEE7036C002BE5D04FF0500380
:102B000083F31188BFF36F8FBFF34F8FFEE701F0A0
:102B1000E7FBEFF311894FF0500383F31188BFF304
:102B20006F8FBFF34F8FAA6BEB6B9A4206D3022CC9
:102B300004D0002089F31188BDE8F88395F845801A
:102B40004FFA88F8224639462846FFF7D0FDB8F1FB
:102B5000FF3F06D008F101035BB285F84530012044
:102B6000E8E76B6A0BB90120E4E705F1240000F007
:102B7000F7FC18B126B101203060DBE70120D9E76E
:102B80000120D7E7F0B585B0019290B10F46044619
:102B9000C1B100F09BFD064600BB019B002B5ED03F
:102BA0004FF0500383F31188BFF36F8FBFF34F8F44
:102BB000FEE74FF0500383F31188BFF36F8FBFF32D
:102BC0004F8FFEE7036C002BE3D04FF0500383F3ED
:102BD0001188BFF36F8FBFF34F8FFEE700263EE0F3
:102BE00039462046FFF7BEFD013DA563236923B9A1
:102BF00001F072FA012005B0F0BD04F1100000F000
:102C0000AFFC0028F4D04FF0E0234FF08052C3F81F
:102C1000042DBFF34F8FBFF36F8FE9E701F05CFA2C
:102C20000020E8E702A800F0FDFC012621E00023D7
:102C300084F8443029E0002384F845302BE0204616
:102C4000FFF7A2FD00F06CFB09E02046FFF79CFDBA
:102C500000F066FB2046FFF73DFD00283FD101F064
:102C600019FAA56B002DBBD1019B002BD6D0002EED
:102C7000D8D001F031FA00F0B9FA01F00BFA94F86B
:102C800044305BB2B3F1FF3FD1D094F845305BB232
:102C9000B3F1FF3FCFD001F01FFA01A902A800F065
:102CA000CDFC0028D1D12046FFF714FD0028C6D066
:102CB000019904F1240000F01FFC2046FFF764FD99
:102CC00000F02EFB0028CAD14FF0E0234FF08052D5
:102CD000C3F8042DBFF34F8FBFF36F8FBFE7002002
:102CE00089E700000023072B0CD8074A52F833204D
:102CF0000AB10133F7E7044A42F8331002EBC30389
:102D000058607047704700BFC031002070B504465E
:102D10000D46164601F0BEF994F844305BB2B3F1AB
:102D2000FF3F0DD094F845305BB2B3F1FF3F0BD0BD
:102D300001F0D2F9A36B5BB12046FFF725FD70BD12
:102D4000002384F84430EDE7002384F84530EFE7B2
:102D50003246294604F1240000F0E6FBECE70000CF
:102D6000084B1B681B6823B9074B4FF0FF321A60F2
:102D70007047044B1B68DB68DB685A68024B1A60BB
:102D8000704700BF04320020B03600202DE9F04724
:102D900080460D4617469946089EDDF824A00A9CF9
:102DA0009200A521206B01F0A3FD236B07F1804267
:102DB000013A03EB820727F00707B5B34FF0000C89
:102DC000BCF10F0F0BD815F80C2004EB0C0383F8A3
:102DD000342015F80C3013B10CF1010CF0E700238E
:102DE00084F84330372E00D93726E662E6640025A2
:102DF0002565201DFFF725FC04F11800FFF721FCD5
:102E00002461C6F13806A6616462656584F858508D
:102E10004A464146384601F011F92060BAF1000FE8
:102E200001D0CAF80040BDE8F087002384F83430B0
:102E3000D8E7000038B5002407E004EB84029300D3
:102E40000E481844FFF7F2FB0134372CF5D90C4D2E
:102E50002846FFF7EBFB0B4C2046FFF7E7FB0A4841
:102E6000FFF7E4FB0948FFF7E1FB0948FFF7DEFB4A
:102E7000084B1D60084B1C6038BD00BF0C320020A1
:102E80008436002098360020B8360020E436002032
:102E9000D0360020043200200832002010B504464D
:102EA00001F0F8F8224A136801331360214B1B68C4
:102EB0005BB1214B1B686BB91E4B1B68DA6AE36A76
:102EC0009A4207D81B4B1C6004E01A4B1C60136825
:102ED000012B29D0194A1368013313606364E06A37
:102EE000174B1B68984201D9154B186000EB800006
:102EF000211D144B03EB8000FFF7A6FB01F0ECF85B
:102F00000D4B1B687BB10B4B1B68DA6AE36A9A4274
:102F100009D24FF0E0234FF08052C3F8042DBFF3E5
:102F20004F8FBFF36F8F10BDFFF784FFD2E700BF55
:102F30006C36002000320020CC3600207C36002089
:102F4000803600200C32002010B5044690F859302D
:102F500063B1012B11D0022B0ED04FF0500383F33D
:102F60001188BFF36F8FBFF34F8FFEE7006B00F048
:102F7000EFFF204600F0ECFF10BD00F0E9FFFBE79B
:102F80000F4B1B68D3B110B501F084F80D4BDB6813
:102F9000DC68201DFFF77CFB0B4A1368013B1360C4
:102FA000074A1368013B136001F096F82046FFF7CB
:102FB000CBFF034B1B68002BE6D110BD704700BF51
:102FC00070360020E43600206C36002008B5FFF78C
:102FD000D7FF074B1B68012BF9D94FF0E0234FF0C7
:102FE0008052C3F8042DBFF34F8FBFF36F8FEEE70E
:102FF0000C32002070B504460D46174B1E68174B67
:1030000018680430FFF744FBB4F1FF3F0DD034449F
:10301000124B1B685C60A64210D9114B18680F4B0D
:1030200019680431FFF71BFB70BD002DEFD00B4B6F
:10303000196804310B48FFF707FBF5E70A4B1868DE
:10304000064B19680431FFF70AFB084B1B68A342C3
:10305000EAD9064B1C60E7E7F83600200032002072
:1030600008320020D036002004320020B036002084
:1030700030B587B00B9C7CB10C9DB5B15C25049537
:10308000049D5C2D1AD04FF0500383F31188BFF3D9
:103090006F8FBFF34F8FFEE74FF0500383F311881C
:1030A000BFF36F8FBFF34F8FFEE74FF0500383F3F3
:1030B0001188BFF36F8FBFF34F8FFEE7049D0C9D08
:1030C0002C63022485F8594000240394029505AC32
:1030D00001940A9C0094FFF759FE0C98FFF7DEFE5E
:1030E000059807B030BD2DE9F04385B00746884606
:1030F00014461E46900000F0B3FE00B381465C20EB
:1031000000F0AEFE0546B0B1C0F83090E5B1002346
:1031100085F85930039302950D9B01930C9B009306
:103120003346224641463846FFF730FE2846FFF731
:10313000B5FE012005E0484600F00AFFE6E74FF043
:10314000FF3005B0BDE8F0834FF0FF30F9E7000035
:1031500010B588B000240594069407AA06A905A80E
:1031600000F002FE059B0293069B01930094234608
:10317000079A18491848FFF77BFF184B186040B1B1
:1031800000F068FB012806D0B0F1FF3F18D008B06E
:1031900010BD0020F6E74FF0500383F31188BFF312
:1031A0006F8FBFF34F8F0E4B4FF0FF321A600D4BF6
:1031B00001221A600C4B00221A6001F005F8E6E7C4
:1031C0004FF0500383F31188BFF36F8FBFF34F8F1E
:1031D000FEE700BFE8ED0008CD2F0008AC36002068
:1031E000B0360020CC360020F8360020024A1368A2
:1031F00001331360704700BF78360020014B186818
:10320000704700BFF8360020F8B53A4B1B68002B1A
:1032100064D1394B1D6801351D60C5B9374B1B683A
:103220001B6843B14FF0500383F31188BFF36F8FD6
:10323000BFF34F8FFEE7314A1168314B18681060B9
:103240001960304A136801331360FFF789FD2E4B74
:103250001B68AB4238D900272C4B1B68DB6A03EB99
:1032600083039A002A4B9B58012B3CD901273AE053
:103270000127224B1B681B6843B3204B1B68DB688C
:10328000DC6863689D4226D3261D3046FFF700FAAE
:10329000A36A1BB104F11800FFF7FAF9E36A1D4AAB
:1032A0001268934201D91B4A136003EB83039A000F
:1032B000314617481044FFF7C7F9E26A134B1B6801
:1032C000DB6A9A42D4D2D4E70027D2E70E4B4FF004
:1032D000FF321A60C0E70C4A1360BDE70E4A13685C
:1032E0000133136000270D4B1B6803B101273846DB
:1032F000F8BD00BF78360020F836002004320020E8
:1033000008320020B4360020B03600200032002001
:103310000C3200208036002074360020FC3600205D
:1033200038B5354B1B6843B94FF0500383F3118810
:10333000BFF36F8FBFF34F8FFEE700F0ABFE2E4B56
:103340001A68013A1A601B68002B4FD12B4B1B687F
:103350000BB900244BE00024294B1B681BB3284BFE
:10336000DB68DC6804F11800FFF792F9251D284698
:10337000FFF78EF9E06A234B1B68984201D9214B75
:10338000186000EB800029461F4B03EB8000FFF71D
:103390005BF9E26A1D4B1B68DB6A9A42DCD31C4B6B
:1033A00001221A60D8E70CB1FFF7DAFC194B1C6850
:1033B00084B9174B1C68D4B14FF0E0234FF0805212
:1033C000C3F8042DBFF34F8FBFF36F8F01240EE0BE
:1033D000013C07D0FFF718FF0028F9D00C4B012261
:1033E0001A60F5E70B4B00221A60E2E7002400F0B8
:1033F00073FE204638BD00BF783600206C360020B2
:10340000B8360020803600200C3200200032002028
:10341000FC3600207436002010B5A8B10446104BCD
:103420001B6843B14FF0500383F31188BFF36F8FD4
:10343000BFF34F8FFEE7FFF7D9FE00212046FFF7CD
:10344000D9FDFFF76DFF48B94FF0E0234FF08052F0
:10345000C3F8042DBFF34F8FBFF36F8F10BD00BFB4
:10346000783600201F4B1B681BB11F4B01221A60CE
:1034700070471D4B00221A601C4B1B6803EB830135
:103480008A001B498A585AB90BB1013BF6E74FF045
:10349000500383F31188BFF36F8FBFF34F8FFEE7A5
:1034A00003EB830082000A4450684068506003EBDD
:1034B000830C4FEA8C020832114488420BD003EB94
:1034C000830291000A4A0A445268D168094A11608D
:1034D000064A13607047406862469100044A0A44F5
:1034E0005060ECE778360020FC3600208036002063
:1034F0000C3200200032002058B110B50C46094AA9
:1035000011681831FFF7ABF801212046FFF772FD73
:1035100010BD4FF0500383F31188BFF36F8FBFF3DB
:103520004F8FFEE70032002038B570B10D461446CB
:103530000A4A11681831FFF787F80CB14FF0FF35D0
:1035400021462846FFF756FD38BD4FF0500383F360
:103550001188BFF36F8FBFF34F8FFEE7003200205B
:1035600038B5C368DC6824B304F118052846FFF7B2
:103570008FF8184B1B682BBB251D2846FFF788F8D2
:10358000E06A154B1B68984201D9134B186000EB99
:1035900080002946114B03EB8000FFF755F8E26AE3
:1035A0000F4B1B68DB6A9A4211D901200D4B186042
:1035B00038BD4FF0500383F31188BFF36F8FBFF313
:1035C0004F8FFEE729460848FFF73EF8E7E700205F
:1035D000EEE700BF78360020803600200C32002055
:1035E00000320020FC360020B836002060B110B553
:1035F000044600F04FFD094B1B682360084B1B6815
:10360000636000F069FD10BD4FF0500383F3118833
:10361000BFF36F8FBFF34F8FFEE700BFB4360020BC
:10362000F8360020034B1B680360034B1B684360A4
:10363000704700BFB4360020F8360020F8B5C8B196
:103640000C460546F9B100F025FD1B4B19686B6867
:10365000C81A2268B2F1FF3F26D0184E36682F688C
:10366000B74201D08B4224D9824215D8002323606F
:1036700001241AE04FF0500383F31188BFF36F8FDA
:10368000BFF34F8FFEE74FF0500383F31188BFF372
:103690006F8FBFF34F8FFEE75B1A134423602846FA
:1036A000FFF7C0FF002400E0002400F015FD2046D5
:1036B000F8BD0124F9E700BFF8360020B436002039
:1036C000014B01221A607047FC360020054B1B6835
:1036D00033B1054B1B680BB10020704702207047C7
:1036E00001207047CC3600207836002000283BD0DF
:1036F00038B504461E4B1B68834208D04FF0500378
:1037000083F31188BFF36F8FBFF34F8FFEE7036D15
:1037100043B94FF0500383F31188BFF36F8FBFF3AA
:103720004F8FFEE7013B0365C16AC26C91421DD019
:103730000BB1002038BD051D2846FEF7A9FFE06C3F
:10374000E062C0F13803A3610A4B1B68984201D9BB
:10375000084B186000EB80002946074B03EB800004
:10376000FEF772FF0120E5E7002070470020E1E747
:1037700000320020803600200C320020064B1A68F0
:1037800013682BB90123036023B9D3681868704705
:103790000023F8E7002070470037002008B541609B
:1037A000006191420CD8D21A83699A4201D3012058
:1037B00008BD011D094B1868FEF751FF0020F7E70F
:1037C0009A4201D2994206D2011D054B1868FEF7B4
:1037D00046FF0020ECE70120EAE700BF04370020A5
:1037E0000037002030B583B000F054FC114B1B684B
:1037F0001BB100F071FC03B030BD0F4D2846FEF741
:1038000015FF0E4C2046FEF711FF0D4B1D600D4BB2
:103810001C60002300930C4B0C4A10210A20FFF778
:103820003DF8044B18600028E3D00949FFF75AFA25
:10383000DFE700BF24380020A8370020BC37002075
:103840000037002004370020D4370020083700203C
:10385000F0ED000810B588B0FFF7C4FF124B1B68ED
:10386000CBB100240594069407AA06A905A800F088
:1038700087FA059B0293069B01930223009323463C
:10388000079A0A490A48FFF7F3FB0A4B186010B180
:10389000012008B010BD4FF0500383F31188BFF32F
:1038A0006F8FBFF34F8FFEE724380020F8ED00083C
:1038B000B93B000828380020B8B19C460346184898
:1038C000006858B300B585B00091019202930529B4
:1038D0001CDCFFF7FBFE022810D000231A466946C5
:1038E0000F480068FFF724F815E04FF0500383F30A
:1038F0001188BFF36F8FBFF34F8FFEE70023069A47
:10390000694607480068FFF713F804E000236246A1
:103910006946FFF7D1F805B05DF804FB0020704759
:103920002438002070B582B01B4B1B681A6862B344
:10393000DB681E68DC68251D2846FEF7A9FE236AA1
:103940002046984794F8283013F0040FECD0A36970
:1039500033449E4207D26360246129460E4B1868A7
:10396000FEF77DFEE0E7002100910B46324620463F
:10397000FFF7A2FF0028D7D14FF0500383F311883F
:10398000BFF36F8FBFF34F8FFEE7044A1068024901
:103990000860136002B070BD0037002004370020BB
:1039A00038B50546FFF72AFC0446074B1B688342DF
:1039B00005D800232B60044B1C60204638BDFFF760
:1039C000B1FF01232B60F6E7D037002070B582B03D
:1039D00006460D4617490968C968CC68201DFEF7E0
:1039E00057FE94F828C01CF0040F08D12CF0010CED
:1039F00084F828C0236A2046984702B070BDA169A8
:103A000033462A4631442046FFF7C8FE0028F1D04D
:103A1000002100910B4632462046FFF74DFF00285B
:103A2000E8D14FF0500383F31188BFF36F8FBFF3DA
:103A30004F8FFEE70037002070B582B006460C4677
:103A4000FFF7D4FB01A8FFF7ABFF019B33BB054693
:103A50000CB9B04219D224B1124A12681268DAB90C
:103A600001242246711B104B1868FFF74FF9FFF72E
:103A700057FCA8B94FF0E0234FF08052C3F8042D53
:103A8000BFF34F8FBFF36F8F0AE0FFF749FC294662
:103A90003046FFF79BFF03E01C46E2E7FFF740FCE0
:103AA00002B070BD043700202438002010B588B063
:103AB00002E0049B002B0FDA002204A93D4B18689A
:103AC000FFF760F8002873D0049B002BF1DA079908
:103AD0000698059B9847ECE7069C636913B1201D87
:103AE000FEF7D6FD03A8FFF75BFF049B092BE3D885
:103AF000DFE803F00505053037500505303794F849
:103B0000283043F0010384F82830059BA169024660
:103B100019442046FFF742FE0028CDD0236A2046F4
:103B2000984794F8283013F0040FC5D0A2690021FB
:103B300000910B46059802442046FFF7BDFE002881
:103B4000BAD14FF0500383F31188BFF36F8FBFF3E7
:103B50004F8FFEE794F8283023F0010384F82830D3
:103B6000AAE794F8283043F0010384F82830059937
:103B7000A16131B10346024601442046FFF70EFE23
:103B80009AE74FF0500383F31188BFF36F8FBFF3B1
:103B90004F8FFEE794F8283013F0020F04D023F083
:103BA000010384F8283087E7204600F0D1F983E745
:103BB00008B010BD2438002000B583B001A8FFF77D
:103BC000DDFD0199FFF738FFFFF770FFF6E7000012
:103BD000EFF305837BB9EFF3108313B9EFF3118390
:103BE0001BB1094B1B68022B08D0074B186840B962
:103BF00001221A6070476FF0050070476FF00500F2
:103C000070474FF0FF307047883A002008B5EFF357
:103C10000583A3B9EFF3108313B9EFF311831BB13D
:103C20000B4B1B68022B0DD0094B1B68012B0CD1D1
:103C3000074B02221A60FFF78BFA002008BD6FF0D5
:103C40000500FBE76FF00500F8E74FF0FF30F5E700
:103C5000883A0020F0B587B000240594EFF305847E
:103C6000002C38D1EFF3108313B9EFF311831BB19C
:103C70002D4B1B68022B2ED068B322B315689369B5
:103C800003B918235C1E372C49D8546814F0010F6F
:103C900047D156696EB14FEA960C94682CB1D7683B
:103CA0005B2F02D9176907B1C6B92CB14FF0FF34A9
:103CB0000EE04FF0800CF0E7D4688CB9146994B131
:103CC0004FF0FF3404E01546002418234FF0800C19
:103CD000012C0AD0ACB1059807B0F0BD0124F7E77C
:103CE0004FF0FF34F4E70024F2E71469926802927F
:103CF000019400930B4662462946FFF7B9F90590F7
:103D0000E9E705AA019200930B461FFA8CF22946B7
:103D1000FFF7E9F90128DED000230593DBE7002057
:103D2000DAE70020D8E700BF883A002008B5EFF3B3
:103D3000058383B9EFF3108313B9EFF311831BB13C
:103D4000084B1B68022B09D008B9002008BDFFF7FB
:103D500063FB0020FAE76FF00500F7E76FF005005E
:103D6000F4E700BF883A0020034B0360034B0B606D
:103D700080231360704700BF2C3A00202C380020AD
:103D8000034B0360034B0B604FF480731360704769
:103D90008C3E00208C3A0020124A12F0070F1ED0F1
:103DA000D11D21F00701C1F5705313440A460E4896
:103DB0000260002141601344083B23F007030B48D5
:103DC000036059601960991A51601360084B1960BB
:103DD000084B1960084B4FF000421A6070474FF4CF
:103DE0007053E4E7EC3E0020F87A0020E83E002023
:103DF000F47A0020F07A0020EC7A0020164B1A4664
:103E00001B688342FBD3516802EB010C844509D047
:103E1000416800EB010C634509D00360904219D062
:103E2000106070474068014451601046F0E710B4DC
:103E30000A4C2468A3420BD05B68194441601368A4
:103E40001B680360904200D010605DF8044B70471F
:103E50000460F7E7704700BFF87A0020E83E0020D2
:103E600070B50546FFF7C2F9344B1B68A3B1344B5C
:103E70001B681D424AD135B1083515F0070F02D035
:103E800025F007050835002D42D02E4B1B68AB42AC
:103E90004DD32D4A146804E0FFF77EFFE7E7224682
:103EA0001C466368AB4202D22368002BF7D1234B38
:103EB0001B68A3423DD01668083623681360636808
:103EC0005B1B102B10D9601910F0070F08D04FF0B2
:103ED000500383F31188BFF36F8FBFF34F8FFEE75B
:103EE00043606560FFF78AFF626816490B689B1A9A
:103EF0000B60164909688B4201D214490B60104BC4
:103F00001B68134363600023236002E0002600E087
:103F10000026FFF705FA16F0070F0CD04FF05003FC
:103F200083F31188BFF36F8FBFF34F8FFEE7002637
:103F3000EFE70026EDE7304670BD00BFE83E002009
:103F4000EC7A0020F07A0020F87A0020F47A002041
:103F500080B338B50446A0F1080550F8043C164A71
:103F60001268134208D14FF0500383F31188BFF356
:103F70006F8FBFF34F8FFEE750F8081C41B14FF031
:103F8000500383F31188BFF36F8FBFF34F8FFEE7AA
:103F900023EA020340F8043CFFF728F954F8041C14
:103FA000064A13680B4413602846FFF727FFFFF704
:103FB000B7F938BD704700BFEC7A0020F07A0020D6
:103FC00082B0002301930D4B1B68B3F1FF3F08D073
:103FD0004FF0500383F31188BFF36F8FBFF34F8F00
:103FE000FEE74FF0500383F31188BFF36F8FBFF3E9
:103FF0004F8F019B002BFCD002B0704710000020B7
:1040000008480068006880F308884FF0000080F3DB
:10401000148862B661B6BFF34F8FBFF36F8F00DFB6
:1040200000BF000008ED00E0DFF80C00016841F47B
:10403000700101607047000088ED00E04FF0807370
:1040400040F8043C21F0010140F8081C054B40F801
:104050000C3C40F8202C6FF0020340F8243C44381C
:10406000704700BFC13F00080000000000000000D2
:10407000074B19680868B0E8F04F80F30988BFF370
:104080006F8F4FF0000080F311887047AFF300800E
:10409000003200204FF0500383F31188BFF36F8F7D
:1040A000BFF34F8F0B4A136801331360012B00D00D
:1040B00070474FF0E023D3F8043D13F0FF0FF7D023
:1040C0004FF0500383F31188BFF36F8FBFF34F8F0F
:1040D000FEE700BF10000020094B1B6843B94FF0FA
:1040E000500383F31188BFF36F8FBFF34F8FFEE749
:1040F000013B034A13600BB983F31188704700BF7B
:10410000100000200000000000000000000000007F
:10411000EFF30980BFF36F8F154B1A681EF0100F75
:1041200008BF20ED108A20E9F04F10602DE909004A
:104130004FF0500080F31188BFF34F8FBFF36F8FA4
:10414000FFF790F94FF0000080F3118809BC19685F
:104150000868B0E8F04F1EF0100F08BFB0EC108AEE
:1041600080F30988BFF36F8F704700BFAFF3008003
:104170000032002008B54FF0500383F31188BFF3DD
:104180006F8FBFF34F8FFFF73FF828B14FF0E02359
:104190004FF08052C3F8042D002383F3118808BD2B
:1041A0004FF0E022002313619361054B1B68054922
:1041B000A1FB03139B09013B536107231361704764
:1041C0000C000020D34D62104FF0E023D3F8002DF7
:1041D0003D4B9A421CD04FF0E023D3F8002D3B4BCF
:1041E0009A421ED030B583B0394B1A78D2B20192C0
:1041F000FF221A701B78DBB28DF803309DF8033074
:1042000003F05003334A1370334B07221A601BE04C
:104210004FF0500383F31188BFF36F8FBFF34F8FBD
:10422000FEE74FF0500383F31188BFF36F8FBFF3A6
:104230004F8FFEE7284A1368013B13609DF8033057
:104240005B00DBB28DF803309DF8033013F0800F74
:10425000F0D1214B1B68032B08D04FF0500383F3A0
:104260001188BFF36F8FBFF34F8FFEE71B021A4A0F
:10427000136003F4E0631360019BDBB2144A137014
:104280004FF0E024D4F8203D43F47003C4F8203DFF
:10429000D4F8203D43F07043C4F8203DFFF780FF81
:1042A00000250E4B1D60FFF7BFFED4F8343F43F0EE
:1042B0004043C4F8343FFFF7A3FEFFF7D3F8FFF7FE
:1042C0007FFE284603B030BD71C20F4170C20F415E
:1042D00000E400E0007B0020047B002010000020B0
:1042E000EFF305830F2B0FD9114A9B5CDBB2114A08
:1042F00012789A4208D94FF0500383F31188BFF324
:104300006F8FBFF34F8FFEE74FF0E023D3F80C3DE4
:1043100003F4E063084A1268934208D94FF050034F
:1043200083F31188BFF36F8FBFF34F8FFEE77047A2
:10433000F0E300E0007B0020047B0020124A12F032
:10434000070F1ED0D11D21F00701C1F57053134492
:104350000A460E480260002141601344083B23F0E6
:1043600007030B48036059601960991A5160136084
:10437000084B1960084B1960084B4FF000421A6057
:1043800070474FF47053E4E70C7B002018B700200F
:10439000087B002014B7002010B700200CB70020C5
:1043A000164B1A461B688342FBD3516802EB010C83
:1043B000844509D0416800EB010C634509D00360D6
:1043C000904219D010607047406801445160104617
:1043D000F0E710B40A4C2468A3420BD05B68194480
:1043E000416013681B680360904200D010605DF864
:1043F000044B70470460F7E7704700BF18B7002010
:10440000087B002070B50546FEF7F0FE344B1B68B4
:10441000A3B1344B1B681D424AD135B1083515F0A4
:10442000070F02D025F007050835002D42D02E4B8E
:104430001B68AB424DD32D4A146804E0FFF77EFFA2
:10444000E7E722461C466368AB4202D22368002B92
:10445000F7D1234B1B68A3423DD01668083623686A
:10446000136063685B1B102B10D9601910F0070FE5
:1044700008D04FF0500383F31188BFF36F8FBFF361
:104480004F8FFEE743606560FFF78AFF6268164959
:104490000B689B1A0B60164909688B4201D21449BC
:1044A0000B60104B1B68134363600023236002E022
:1044B000002600E00026FEF733FF16F0070F0CD0B1
:1044C0004FF0500383F31188BFF36F8FBFF34F8F0B
:1044D000FEE70026EFE70026EDE7304670BD00BF9F
:1044E000087B00200CB7002010B7002018B7002070
:1044F00014B7002080B338B50446A0F1080550F881
:10450000043C164A1268134208D14FF0500383F35B
:104510001188BFF36F8FBFF34F8FFEE750F8081C71
:1045200041B14FF0500383F31188BFF36F8FBFF396
:104530004F8FFEE723EA020340F8043CFEF756FEE5
:1045400054F8041C064A13680B4413602846FFF70E
:1045500027FFFEF7E5FE38BD704700BF0CB700200F
:1045600010B7002050F8043C024A106823EA00000B
:10457000704700BF0CB7002070B505460C46FEF72B
:1045800035FE2046FFF73EFF064678B175B1284656
:10459000FFF7E8FF0838844200D304462246294644
:1045A000304600F097F92846FFF7A4FFFEF7B8FE63
:1045B000304670BD38B505460C46FEF717FE05FBC4
:1045C00004F42046FFF71EFF0546034603E00021E2
:1045D00003F8011B1446621E002CF8D1FEF7A0FE62
:1045E000284638BD08B5034605490A6802440A60F2
:1045F00004490A6813440B60FFF704FF08BD00BFBD
:1046000020B7002024B7002058B110B50446FFF7AA
:10461000A9FF044A13681B1A13602046FFF76AFFBC
:1046200010BD704724B7002038B50C460C4A1368FB
:104630000B4413600B4A13680B44136058B10546D2
:10464000FFF790FF074A13681B1A1360214628469C
:10465000FFF792FF38BD0846FFF7D4FEFAE700BF28
:1046600020B7002024B7002010B501FB00F3054C53
:1046700022681A442260044C226813442360FFF726
:1046800099FF10BD20B7002024B7002000000000D3
:104690002DE9F04107460E46144615A3D3E9002341
:1046A000FBF706FE0D4680462060616010A3D3E94B
:1046B000002338463146FBF7FBFDA260002A01DBF0
:1046C000BDE8F081084981FB0231D317C3EB2173A8
:1046D0000133B8EB030165EBE375216065600349C5
:1046E00001FB0322A260EBE7A12FB84400CA9A3B6A
:1046F00000CA9A3B0000000030B583B00D4600248C
:10470000009401946846FEF771FF0099019A4FEA00
:10471000411C4CEAD26C53019B1A6CEB010C4FEA22
:104720004C2C4CEAD35C5B029B1841EB0C0C4FEA1F
:104730008C1E4EEA936E9801C31A6EEB0C0C9818FF
:104740002A4641EB0C01FFF7A3FF204603B030BD22
:1047500008B54FF400620349D0F88C02FDF768FDFC
:10476000012008BD28B7002008B5D0F88C02FDF75D
:10477000B3FD012008BD70B5D0F88C5295F83930E2
:10478000DBB2202B01D0002070BD144692B2284627
:10479000FDF708FD064646B995F83930DBB2202B07
:1047A00003D00120FFF7C2FAF5E70EB92046EBE788
:1047B0000020E9E72DE9F8430D4614461F46D0F8DE
:1047C0008C82002672B6D8F834301B685868C0F561
:1047D0000060DFF85490C9F8000062B6013601208D
:1047E000FFF7A4FA0E4B1B68D9F80020934214D1AE
:1047F000BE42E7DB002008E00A49C95C29540133C6
:10480000C3F30A0306490B600130054B1B689A424B
:1048100001D0A042F0D3BDE8F8830020F5E700BF47
:1048200028BF002028B700202CBF0020DFF834D09C
:10483000002103E00C4B5B58435004310B480C4BF8
:1048400042189A42F6D30B4A02E0002342F8043B96
:10485000094B9A42F9D3FDF7DBFE00F017F8FBF79E
:1048600059FF704700000220B4F900080000002042
:104870001801002018010020480A0120FEE700006E
:10488000014B1868704700BF1400002070B50D4D33
:104890000D4C641BA4100026A64209D10B4D0C4CF4
:1048A0000AF034FA641BA4100026A64205D170BD9C
:1048B00055F8043B98470136EEE755F8043B984716
:1048C0000136F2E7A8F90008A8F90008A8F90008DD
:1048D000B0F900080A44914200F1FF3300D170475B
:1048E00010B511F8014B03F8014F9142F9D110BDF9
:1048F00002440346934200D1704703F8011BF9E7D5
:104900000FB40A4B13B51C6824B1A36913B9204630
:1049100000F066F805AB049AA1680193204600F008
:10492000BDF902B0BDE8104004B07047140000208B
:10493000002310B50446C0E90033C0E904338360A6
:1049400081814366C2818361194608225C30FFF78A
:10495000CFFF054B6362054BA362054BE362054B3A
:104960002462236310BD00BF45520008675200084F
:104970009F520008C3520008014900F0AFB800BFC1
:104980009D55000870B568224D1E55430E4605F131
:10499000740100F0E5F8044640B10021C0E90016BA
:1049A0000C30A06005F16802FFF7A2FF204670BD41
:1049B000014800F0B3B800BF32BF0020014800F04A
:1049C000AEB800BF32BF0020014800F0A7B800BF5A
:1049D00033BF0020014800F0A2B800BF33BF002061
:1049E00010B50446FFF7F0FFA3691BB1BDE8104006
:1049F000FFF7F0BFC4E912332365134B134A1B685A
:104A0000A262A34204BF0123A361204600F020F864
:104A10006060204600F01CF8A060204600F018F806
:104A20000022E06004216068FFF782FFA068012295
:104A30000921FFF77DFFE06802221221FFF778FFCE
:104A40000123A361D2E700BF00EE00087949000806
:104A5000F8B50746FFF7ACFF1E4B1E68B36913B9E4
:104A60003046FFF7BDFF4836D6E90134013B03D598
:104A700033680BB33668F7E7B4F90C50D5B9164B69
:104A8000E36004F15800656600F047F8FFF796FF11
:104A9000C4E90155C4E904552560A56108222946E9
:104AA00004F15C00FFF724FFC4E90D55C4E9125579
:104AB0002046F8BD6834D9E704213846FFF762FF85
:104AC000044630600028D5D1FFF778FF0C233B6007
:104AD000EEE700BF00EE00080100FFFF2DE9F843FC
:104AE0000646884600F148040027D4E90195B9F14B
:104AF000010905D52468002CF7D13846BDE8F883B4
:104B0000AB89012B07D9B5F90E30013303D0294603
:104B10003046C04707436835E9E77047704770473C
:104B200070B50E4E0C463168054611B900F07AFB9F
:104B300030602146284600F075FB431C0AD0C41C97
:104B400024F00304A04207D0211A284600F06AFB93
:104B5000013001D14FF0FF34204670BD38BF002036
:104B60002DE9F041CD1C25F0030508350C2D38BF8B
:104B70000C25002D074601DBA94205D90C233B601B
:104B800000263046BDE8F0812E4E00F0D5FD33689A
:104B90001C4634BB29463846FFF7C2FF431C044677
:104BA0004DD134682646002E40D123683146384620
:104BB00004EB030800F036FB80453AD12168033549
:104BC0006D1A25F0030508350C2D38BF0C25294634
:104BD0003846FFF7A5FF01302BD023682B44236014
:104BE0000EE02268521B1ED40B2A16D96119A3426B
:104BF000256018BF5960636808BF316062514B601F
:104C0000384604F10B0600F09DFD26F00706231D33
:104C1000F21AB6D09B1BA350B3E76268A3420CBF45
:104C200032605A60ECE723466468B2E7344676683F
:104C3000B9E70C233B60384600F084FDA1E725600E
:104C4000DEE700BF34BF00209368013B002B10B4A7
:104C5000936008DA9469A34201DB0A2903D15DF865
:104C6000044B00F033BB1368581C106019700846E1
:104C70005DF8044B7047F8B506460F461446D51844
:104C8000AC4201D1002007E014F8011B3A4630463F
:104C9000FFF7DAFF431CF3D1F8BD00002DE9F04F18
:104CA0000D469DB014469846064618B183690BB967
:104CB000FFF796FE894B9D421BD175686B6ED90735
:104CC00005D4AB899A0502D4A86DFFF727FFAB89FD
:104CD0001B0701D52B69EBB92946304600F05AFB7A
:104CE000C0B16B6EDC070ED54FF0FF301DB0BDE8D4
:104CF000F08F7B4B9D4201D1B568DFE7794B9D4238
:104D000008BFF568DAE7AB899805EDD4A86DFFF721
:104D100006FFE9E70023099320238DF82930CDF819
:104D20000C803023DFF8C0818DF82A304FF0010964
:104D300023469A4613F8012B0AB1252AF9D1BAEB7A
:104D4000040B0BD05B46224629463046FFF793FF03
:104D5000013000F0AA80099A5A4409929AF800306A
:104D6000002B00F0A28000234FF0FF32CDE9052395
:104D70000AF1010A049307938DF853301A935446AD
:104D8000052214F8011B5848FBF742FA049AD8B9D7
:104D9000D10644BF20238DF85330130744BF2B2383
:104DA0008DF853309AF800302A2B15D0079A5446C4
:104DB00000204FF00A0C214611F8013B303B092B33
:104DC0004ED9B0B1079214E0A0EB080309FA03F33F
:104DD00013430493A246D2E7039B191D1B6803915A
:104DE000002BBBBF5B4242F0020207930793B8BFA0
:104DF000049223782E2B0CD163782A2B35D1039B78
:104E00001A1D1B680392002BB8BF4FF0FF3302340A
:104E10000593DFF8E4A0217803225046FBF7F8F968
:104E200040B14023A0EB0A0003FA00F0049B0343C7
:104E30000134049314F8011B2C488DF82810062225
:104E4000FBF7E6F900283FD0294B1BBB039B073338
:104E500023F0070308330393099B3B44099367E757
:104E60000CFB02320C460120A5E700230134059318
:104E700019464FF00A0C204610F8012B303A092A47
:104E800003D9002BC5D00591C3E70CFB01210446D3
:104E90000123F0E703AB00932A46164B04A93046E2
:104EA000AFF300800746781CD6D16B6ED90705D4C6
:104EB000AB899A0502D4A86DFFF731FEAB895B067A
:104EC0003FF512AF099811E703AB00932A46094B4F
:104ED00004A9304600F080F8E4E700BF24EE0008A3
:104EE00044EE000804EE000864EE00086EEE0008D0
:104EF00000000000774C00086AEE00082DE9F0473A
:104F0000164699468A680B69DDF820809342B8BF3F
:104F10001346336091F8432007460C460AB101332B
:104F200033602368990642BF3368023333602568D3
:104F300015F0060506D104F1190AE36832689B1AD8
:104F4000AB4226DC94F84320131E226818BF0123CD
:104F500092062BD404F1430249463846C04701303B
:104F60001ED02368E568326803F00603042B08BFEF
:104F7000AD1AA36822690CBF25EAE57500259342A6
:104F8000C4BF9B1AED1800261A34B5421AD100206E
:104F900008E00123524649463846C047013003D154
:104FA0004FF0FF30BDE8F0870135C6E7E1185A1C25
:104FB000302081F84300224494F8451082F84310D1
:104FC0000233C7E70123224649463846C04701302D
:104FD000E6D00136D9E700002DE9FF470F7E0C9D92
:104FE000782F914680460C469A4601F1430207D835
:104FF000622F0AD8002F00F0D880582F00F0A3802D
:1050000004F1420584F842703AE0A7F16303152BDE
:10501000F6D801A151F823F071500008855000081E
:10502000015000080150000801500008015000081C
:105030008550000801500008015000080150000888
:105040000150000891510008B55000087351000844
:105050000150000801500008B35100080150000839
:10506000B550000801500008015000087B510008AD
:105070002B681A1D1B682A6004F1420584F842302F
:105080000123A3E020682968060601F104030AD57C
:105090000E682B60002E03DA2D23764284F843300D
:1050A0005E480A2319E00E682B6010F0400F18BF0D
:1050B00036B2EFE72B682068191D2960010601D57B
:1050C0001E6802E04606FBD51E8854486F2F0CBFB1
:1050D00008230A23002184F843106568A560002D89
:1050E000A2BF216821F0040121600EB9002D4DD02E
:1050F0001546B6FBF3F103FB1167C75D05F8017DAB
:105100003746BB420E46F4D9082B0BD12368DE0785
:1051100008D5236961689942DEBF302305F8013C58
:1051200005F1FF35521B2261CDF800A04B4603AAC2
:1051300021464046FFF7E2FE01304CD14FF0FF30F0
:1051400004B0BDE8F087354881F8457029682368C8
:1051500051F8046B29601D0614D5DF0744BF43F0E6
:10516000200323601EB9236823F02003236010234B
:10517000B0E7236843F0200323607823284884F8AD
:105180004530E3E7590648BFB6B2E6E71546BBE748
:105190002B6826686169181D286035061B6801D5D3
:1051A000196002E07006FBD51980002323611546C3
:1051B000BAE72B681A1D2A601D686268002128461C
:1051C000FBF726F808B1401B606063682361002389
:1051D00084F84330A8E723692A4649464046D04729
:1051E0000130ABD023689B0713D4E068039B98423F
:1051F000B8BF1846A4E70123324649464046D04787
:1052000001309BD00135E36803995B1AAB42F2DCB5
:10521000EBE7002504F11906F5E700BF75EE00087D
:1052200086EE000838B5064D0023044608462B607C
:10523000FBF79EFC431C02D12B6803B1236038BDF1
:105240003CBF002010B50C46B1F90E1000F0FCFA7E
:105250000028ABBF636DA3891B1823F48053ACBF38
:105260006365A38110BD2DE9F0411F468B89DB05E5
:1052700005460C46164605D5B1F90E10022300224C
:1052800000F0C8F9A389B4F90E1023F48053A38168
:1052900032463B462846BDE8F04100F069B810B5FB
:1052A0000C46B1F90E1000F0B5F9431CA38915BFE7
:1052B000606523F4805343F48053A38118BFA38116
:1052C00010BDB1F90E1000F0D3B80000F8B50E46CD
:1052D0001446054618B183690BB9FFF781FB214BD2
:1052E0009C422BD16C68A369A360A3891A072FD5B0
:1052F00023696BB323692068C01A6369F6B28342DD
:10530000374604DC2146284600F048F930BBA36844
:10531000013BA36023685A1C22601E706369013040
:10532000834204D0A389DB0706D50A2E04D1214687
:10533000284600F033F988B93846F8BD0A4B9C423C
:1053400001D1AC68CFE7094B9C4208BFEC68CAE7C3
:105350002146284600F01EF80028CBD04FF0FF373A
:10536000EAE700BF24EE000844EE000804EE00085F
:1053700038B5074D04460846114600222A601A46F1
:10538000FBF7E8FB431C02D12B6803B1236038BD57
:105390003CBF0020324B70B51D6806460C4625B157
:1053A000AB6913B92846FFF71BFB2E4B9C420FD16C
:1053B0006C68A389B4F90C2019072CD4DD0611D42C
:1053C0000923336042F04003A3814FF0FF303EE0F9
:1053D000254B9C4201D1AC68EBE7244B9C4208BFB3
:1053E000EC68E6E7580712D5616B41B104F144035C
:1053F000994202D0304600F0ABF900236363A389E1
:1054000023F02403A3810023636023692360A3891D
:1054100043F00803A38123694BB9A38903F42073E4
:10542000B3F5007F03D02146304600F02BF9A08968
:10543000B4F90C2010F001030AD00023A3606369C3
:105440005B42A361236943B910F08000BAD170BDFB
:10545000810758BF6369A360F4E70020F7E700BF46
:105460001400002024EE000844EE000804EE0008BA
:1054700038B5064D0023044608462B60FBF79EFB1B
:10548000431C02D12B6803B1236038BD3CBF002010
:105490008A892DE9F041054610070C4658D44B681F
:1054A000002B05DC0B6C002B02DC0020BDE8F0813A
:1054B000E66A002EF9D0002312F480522F682B6088
:1054C00032D0606DA3895A0705D56368C01A636B33
:1054D0000BB1236CC01A00230246E66A216A2846F3
:1054E000B047431CA38906D129681D292CD82A4A14
:1054F000CA40D60728D500226260D90422692260FA
:1055000004D5421C01D12B6803B96065616B2F6023
:105510000029CAD004F14403994202D0284600F081
:1055200017F900206063C1E7216A01232846B047CC
:10553000411CC7D12B68002BC4D01D2B01D0162BCA
:1055400001D12F60B1E7A38943F04003A381ADE708
:105550000F69002FA9D093070E6808BF4B690F6031
:1055600018BF0023A6EB07088B60B8F1000F9CDD85
:10557000216AA66A43463A462846B047002806DC18
:10558000A38943F04003A3814FF0FF308EE7074427
:10559000A8EB0008E9E700BF0100402038B50B691F
:1055A00005460C4613B90025284638BD18B1836955
:1055B0000BB9FFF715FA144B9C421BD16C68B4F978
:1055C0000C30002BEFD0626ED00704D4990502D4C2
:1055D000A06DFFF7A3FA28462146FFF759FF636E37
:1055E000DA070546E0D4A3899B05DDD4A06DFFF75B
:1055F00096FAD9E7054B9C4201D1AC68DFE7044B32
:105600009C4208BFEC68DAE724EE000844EE00088C
:1056100004EE000838B5074D04460846114600223E
:105620002A601A46FBF7D4FA431C02D12B6803B157
:10563000236038BD3CBF002070B50E46B1F90E1096
:10564000002996B014461D4608DAB6F90C3000223F
:105650002A601A0610D44FF480630EE06A4600F008
:1056600005F90028F1DB019A02F47042A2F500531B
:105670005A425A412A60EEE740230020236016B0C8
:1056800070BD00008B8973B59D0706460C4607D593
:1056900004F14703236023610123636102B070BDFD
:1056A00001AB6A46FFF7C8FF009905463046FFF791
:1056B00057FA48B9B4F90C309A05EFD423F0030334
:1056C00043F00203A381E3E70D4BB362A38920609B
:1056D00043F08003A381009B6361019B20615BB168
:1056E000B4F90E10304600F0D3F828B1A38923F0A6
:1056F000030343F00103A381A0890543A581CDE7FE
:1057000079490008884210B501EB020402D98442AD
:10571000234607D8431EA14208D011F8012B03F8F5
:10572000012FF8E7024401468A4200D110BD13F868
:10573000014D02F8014DF7E70148FFF7EFB900BF4F
:1057400031BF00200148FFF7EAB900BF31BF002098
:1057500037B5002944D051F8043C0190002BA1F149
:105760000404B8BFE418FFF7E7FF1E4A0198136866
:1057700033B96360146003B0BDE83040FFF7E2BFA7
:10578000A34208D9256861198B4201BF19685B687B
:1057900049192160EDE71A465B680BB1A342FAD9BB
:1057A00011685518A5420BD1246821445418A3420E
:1057B0001160E0D11C685B68536021441160DAE736
:1057C00002D90C230360D6E7256861198B4204BF18
:1057D00019685B68636004BF491921605460CAE7B7
:1057E00003B030BD34BF00202DE9F041804614469F
:1057F0000E4621B9BDE8F0411146FFF7B1B92AB90B
:10580000FFF7A6FF25462846BDE8F08100F050F8D6
:105810008442074602D8B4EB500F12D821464046C6
:10582000FFF79EF905460028EDD0BC4222463146DE
:1058300028BF3A46FFF74EF831464046FFF788FF4B
:10584000E1E73546DFE7000038B5074D0446084676
:10585000114600222A601A46FBF76CF9431C02D15C
:105860002B6803B1236038BD3CBF002038B5074D1D
:1058700000230446084611462B60FBF7A2F9431C9F
:1058800002D12B6803B1236038BD00BF3CBF0020AC
:1058900038B5064D0023044608462B60FBF796F901
:1058A000431C02D12B6803B1236038BD3CBF0020EC
:1058B00051F8043C181F002BBCBF0B58C018704790
:1058C000014B1868704700BF98EE00082DE9F047BB
:1058D00088B0109D002D69D005F150090446484656
:1058E0000E4690461F4600F0D5F900285ED0002CE9
:1058F0005CD0D4F800A0BAF1000F04D06427384679
:1059000008B0BDE8F087304604F0BAFF002852D056
:10591000B8F1000F4AD0002F48D0CDE903AA07AA5A
:10592000059205F1580393E807008DE80700CDF8CC
:105930001CA0394699E80C00304604F0F5FF0746F4
:1059400000284FD12B6D296EC82098472060002871
:105950004ED0304604F0B6FF05F164030093079A79
:1059600027682B46414600F055FA2368C7F8C40063
:10597000D3F8C40070B303F1700100F029FB236871
:105980000746D0B995F8482083F8B82029467022F8
:105990001846FEF79FFF3268C0F8C02007986B6D6D
:1059A000296E9847384608B0BDE8F0870B2738467F
:1059B00008B0BDE8F087C827A1E78BB1D3F8C420B1
:1059C00042B1304604F07EFF2368D3F8C41000F0E3
:1059D0000FFB23686A6D296E1846904700232360E9
:1059E0000127DBE76728D9D0692803D00A28F7D137
:1059F0000A27D3E76727D1E770B5144D144988B05B
:105A0000044650222846FEF765FF02A800F034F94C
:105A10000DF1080CBCE80F0005F1500EAEE80F00C8
:105A20006E46DCF80030CEF80030304600F074F9F5
:105A300096E8030005F1640383E803007022294619
:105A40002046FEF747FF204608B070BD40BF00204B
:105A5000A0EE0008F8B1036870B50446B3B116466D
:105A6000D3F8C42092B1D3F8C0000D4604F02EFB49
:105A700060B12368D3F8C40040B155B1324629461D
:105A800000F068F9003818BF012070BD4FF496701F
:105A900070BD0B2070BD4FF4967070472DE9F0413A
:105AA00086B0B8B31C46ABB30F469046064604F02A
:105AB00077FC04F10C03059093E803008DE80300E4
:105AC00005A894E80E0004F06DFC0546E0B902ADAF
:105AD000284604F0F1FA95E80300334686E803000F
